{
  "contractName": "DocumentVerify",
  "abi": [
    {
      "inputs": [],
      "stateMutability": "nonpayable",
      "type": "constructor"
    },
    {
      "inputs": [
        {
          "internalType": "address",
          "name": "owner",
          "type": "address"
        }
      ],
      "name": "OwnableInvalidOwner",
      "type": "error"
    },
    {
      "inputs": [
        {
          "internalType": "address",
          "name": "account",
          "type": "address"
        }
      ],
      "name": "OwnableUnauthorizedAccount",
      "type": "error"
    },
    {
      "anonymous": false,
      "inputs": [
        {
          "indexed": false,
          "internalType": "address",
          "name": "uploader",
          "type": "address"
        },
        {
          "indexed": false,
          "internalType": "string",
          "name": "fileHash",
          "type": "string"
        },
        {
          "indexed": false,
          "internalType": "string",
          "name": "filePathCID",
          "type": "string"
        },
        {
          "indexed": false,
          "internalType": "string",
          "name": "fileIdentifier",
          "type": "string"
        },
        {
          "indexed": false,
          "internalType": "uint256",
          "name": "timestamp",
          "type": "uint256"
        }
      ],
      "name": "FileCertified",
      "type": "event"
    },
    {
      "anonymous": false,
      "inputs": [
        {
          "indexed": true,
          "internalType": "address",
          "name": "previousOwner",
          "type": "address"
        },
        {
          "indexed": true,
          "internalType": "address",
          "name": "newOwner",
          "type": "address"
        }
      ],
      "name": "OwnershipTransferred",
      "type": "event"
    },
    {
      "inputs": [],
      "name": "owner",
      "outputs": [
        {
          "internalType": "address",
          "name": "",
          "type": "address"
        }
      ],
      "stateMutability": "view",
      "type": "function",
      "constant": true
    },
    {
      "inputs": [],
      "name": "renounceOwnership",
      "outputs": [],
      "stateMutability": "nonpayable",
      "type": "function"
    },
    {
      "inputs": [
        {
          "internalType": "address",
          "name": "newOwner",
          "type": "address"
        }
      ],
      "name": "transferOwnership",
      "outputs": [],
      "stateMutability": "nonpayable",
      "type": "function"
    },
    {
      "inputs": [
        {
          "internalType": "string",
          "name": "fileHash",
          "type": "string"
        },
        {
          "internalType": "string",
          "name": "filePathCID",
          "type": "string"
        },
        {
          "internalType": "string",
          "name": "fileIdentifier",
          "type": "string"
        }
      ],
      "name": "certifyFile",
      "outputs": [],
      "stateMutability": "payable",
      "type": "function",
      "payable": true
    },
    {
      "inputs": [
        {
          "internalType": "string",
          "name": "fileHash",
          "type": "string"
        }
      ],
      "name": "verifyFile",
      "outputs": [
        {
          "internalType": "address",
          "name": "",
          "type": "address"
        },
        {
          "internalType": "string",
          "name": "",
          "type": "string"
        },
        {
          "internalType": "string",
          "name": "",
          "type": "string"
        },
        {
          "internalType": "uint256",
          "name": "",
          "type": "uint256"
        }
      ],
      "stateMutability": "view",
      "type": "function",
      "constant": true
    },
    {
      "inputs": [
        {
          "internalType": "string",
          "name": "fileHash",
          "type": "string"
        }
      ],
      "name": "verifyFileHash",
      "outputs": [
        {
          "internalType": "bool",
          "name": "",
          "type": "bool"
        }
      ],
      "stateMutability": "view",
      "type": "function",
      "constant": true
    }
  ],
  "bytecode": "0x608060405234801561000f575f80fd5b50335f73ffffffffffffffffffffffffffffffffffffffff168173ffffffffffffffffffffffffffffffffffffffff1603610081575f6040517f1e4fbdf70000000000000000000000000000000000000000000000000000000081526004016100789190610196565b60405180910390fd5b6100908161009660201b60201c565b506101af565b5f805f9054906101000a900473ffffffffffffffffffffffffffffffffffffffff169050815f806101000a81548173ffffffffffffffffffffffffffffffffffffffff021916908373ffffffffffffffffffffffffffffffffffffffff1602179055508173ffffffffffffffffffffffffffffffffffffffff168173ffffffffffffffffffffffffffffffffffffffff167f8be0079c531659141344cd1fd0a4f28419497f9722a3daafe3b4186f6b6457e060405160405180910390a35050565b5f73ffffffffffffffffffffffffffffffffffffffff82169050919050565b5f61018082610157565b9050919050565b61019081610176565b82525050565b5f6020820190506101a95f830184610187565b92915050565b610f24806101bc5f395ff3fe608060405260043610610054575f3560e01c8063715018a6146100585780638da5cb5b1461006e5780639cfb053014610098578063b0271023146100d4578063da7706db14610113578063f2fde38b1461012f575b5f80fd5b348015610063575f80fd5b5061006c610157565b005b348015610079575f80fd5b5061008261016a565b60405161008f919061071d565b60405180910390f35b3480156100a3575f80fd5b506100be60048036038101906100b99190610883565b610191565b6040516100cb91906108e4565b60405180910390f35b3480156100df575f80fd5b506100fa60048036038101906100f59190610883565b610208565b60405161010a949392919061098f565b60405180910390f35b61012d600480360381019061012891906109e0565b6103d4565b005b34801561013a575f80fd5b5061015560048036038101906101509190610aae565b61050b565b005b61015f61058f565b6101685f610616565b565b5f805f9054906101000a900473ffffffffffffffffffffffffffffffffffffffff16905090565b5f816040516020016101a39190610b13565b604051602081830303815290604052805190602001206001836040516101c99190610b13565b90815260200160405180910390206001016040516020016101ea9190610c18565b60405160208183030381529060405280519060200120149050919050565b5f6060805f60018560405161021d9190610b13565b90815260200160405180910390205f015f9054906101000a900473ffffffffffffffffffffffffffffffffffffffff1660018660405161025d9190610b13565b908152602001604051809103902060020160018760405161027e9190610b13565b908152602001604051809103902060030160018860405161029f9190610b13565b9081526020016040518091039020600401548280546102bd90610b56565b80601f01602080910402602001604051908101604052809291908181526020018280546102e990610b56565b80156103345780601f1061030b57610100808354040283529160200191610334565b820191905f5260205f20905b81548152906001019060200180831161031757829003601f168201915b5050505050925081805461034790610b56565b80601f016020809104026020016040519081016040528092919081815260200182805461037390610b56565b80156103be5780601f10610395576101008083540402835291602001916103be565b820191905f5260205f20905b8154815290600101906020018083116103a157829003601f168201915b5050505050915093509350935093509193509193565b5f6040518060a001604052803373ffffffffffffffffffffffffffffffffffffffff168152602001858152602001848152602001838152602001428152509050806001856040516104259190610b13565b90815260200160405180910390205f820151815f015f6101000a81548173ffffffffffffffffffffffffffffffffffffffff021916908373ffffffffffffffffffffffffffffffffffffffff160217905550602082015181600101908161048c9190610db9565b5060408201518160020190816104a29190610db9565b5060608201518160030190816104b89190610db9565b50608082015181600401559050507f2be38a786e11a56677cc9eeaad68b4d063c9039fd37564d52773cd9c181825aa33858585426040516104fd959493929190610e88565b60405180910390a150505050565b61051361058f565b5f73ffffffffffffffffffffffffffffffffffffffff168173ffffffffffffffffffffffffffffffffffffffff1603610583575f6040517f1e4fbdf700000000000000000000000000000000000000000000000000000000815260040161057a919061071d565b60405180910390fd5b61058c81610616565b50565b6105976106d7565b73ffffffffffffffffffffffffffffffffffffffff166105b561016a565b73ffffffffffffffffffffffffffffffffffffffff1614610614576105d86106d7565b6040517f118cdaa700000000000000000000000000000000000000000000000000000000815260040161060b919061071d565b60405180910390fd5b565b5f805f9054906101000a900473ffffffffffffffffffffffffffffffffffffffff169050815f806101000a81548173ffffffffffffffffffffffffffffffffffffffff021916908373ffffffffffffffffffffffffffffffffffffffff1602179055508173ffffffffffffffffffffffffffffffffffffffff168173ffffffffffffffffffffffffffffffffffffffff167f8be0079c531659141344cd1fd0a4f28419497f9722a3daafe3b4186f6b6457e060405160405180910390a35050565b5f33905090565b5f73ffffffffffffffffffffffffffffffffffffffff82169050919050565b5f610707826106de565b9050919050565b610717816106fd565b82525050565b5f6020820190506107305f83018461070e565b92915050565b5f604051905090565b5f80fd5b5f80fd5b5f80fd5b5f80fd5b5f601f19601f8301169050919050565b7f4e487b71000000000000000000000000000000000000000000000000000000005f52604160045260245ffd5b6107958261074f565b810181811067ffffffffffffffff821117156107b4576107b361075f565b5b80604052505050565b5f6107c6610736565b90506107d2828261078c565b919050565b5f67ffffffffffffffff8211156107f1576107f061075f565b5b6107fa8261074f565b9050602081019050919050565b828183375f83830152505050565b5f610827610822846107d7565b6107bd565b9050828152602081018484840111156108435761084261074b565b5b61084e848285610807565b509392505050565b5f82601f83011261086a57610869610747565b5b813561087a848260208601610815565b91505092915050565b5f602082840312156108985761089761073f565b5b5f82013567ffffffffffffffff8111156108b5576108b4610743565b5b6108c184828501610856565b91505092915050565b5f8115159050919050565b6108de816108ca565b82525050565b5f6020820190506108f75f8301846108d5565b92915050565b5f81519050919050565b5f82825260208201905092915050565b5f5b83811015610934578082015181840152602081019050610919565b5f8484015250505050565b5f610949826108fd565b6109538185610907565b9350610963818560208601610917565b61096c8161074f565b840191505092915050565b5f819050919050565b61098981610977565b82525050565b5f6080820190506109a25f83018761070e565b81810360208301526109b4818661093f565b905081810360408301526109c8818561093f565b90506109d76060830184610980565b95945050505050565b5f805f606084860312156109f7576109f661073f565b5b5f84013567ffffffffffffffff811115610a1457610a13610743565b5b610a2086828701610856565b935050602084013567ffffffffffffffff811115610a4157610a40610743565b5b610a4d86828701610856565b925050604084013567ffffffffffffffff811115610a6e57610a6d610743565b5b610a7a86828701610856565b9150509250925092565b610a8d816106fd565b8114610a97575f80fd5b50565b5f81359050610aa881610a84565b92915050565b5f60208284031215610ac357610ac261073f565b5b5f610ad084828501610a9a565b91505092915050565b5f81905092915050565b5f610aed826108fd565b610af78185610ad9565b9350610b07818560208601610917565b80840191505092915050565b5f610b1e8284610ae3565b915081905092915050565b7f4e487b71000000000000000000000000000000000000000000000000000000005f52602260045260245ffd5b5f6002820490506001821680610b6d57607f821691505b602082108103610b8057610b7f610b29565b5b50919050565b5f819050815f5260205f209050919050565b5f8154610ba481610b56565b610bae8186610ad9565b9450600182165f8114610bc85760018114610bdd57610c0f565b60ff1983168652811515820286019350610c0f565b610be685610b86565b5f5b83811015610c0757815481890152600182019150602081019050610be8565b838801955050505b50505092915050565b5f610c238284610b98565b915081905092915050565b5f6020601f8301049050919050565b5f82821b905092915050565b5f60088302610c787fffffffffffffffffffffffffffffffffffffffffffffffffffffffffffffffff82610c3d565b610c828683610c3d565b95508019841693508086168417925050509392505050565b5f819050919050565b5f610cbd610cb8610cb384610977565b610c9a565b610977565b9050919050565b5f819050919050565b610cd683610ca3565b610cea610ce282610cc4565b848454610c49565b825550505050565b5f90565b610cfe610cf2565b610d09818484610ccd565b505050565b5b81811015610d2c57610d215f82610cf6565b600181019050610d0f565b5050565b601f821115610d7157610d4281610b86565b610d4b84610c2e565b81016020851015610d5a578190505b610d6e610d6685610c2e565b830182610d0e565b50505b505050565b5f82821c905092915050565b5f610d915f1984600802610d76565b1980831691505092915050565b5f610da98383610d82565b9150826002028217905092915050565b610dc2826108fd565b67ffffffffffffffff811115610ddb57610dda61075f565b5b610de58254610b56565b610df0828285610d30565b5f60209050601f831160018114610e21575f8415610e0f578287015190505b610e198582610d9e565b865550610e80565b601f198416610e2f86610b86565b5f5b82811015610e5657848901518255600182019150602085019450602081019050610e31565b86831015610e735784890151610e6f601f891682610d82565b8355505b6001600288020188555050505b505050505050565b5f60a082019050610e9b5f83018861070e565b8181036020830152610ead818761093f565b90508181036040830152610ec1818661093f565b90508181036060830152610ed5818561093f565b9050610ee46080830184610980565b969550505050505056fea264697066735822122052f75b44e6f8c79f2fa7c95bf5aeca7bae578c97bf359ed6afe4fe1dfb5e1d7064736f6c63430008150033",
  "immutableReferences": {},
  "source": "// SPDX-License-Identifier: GPL-3.0\n\npragma solidity >=0.4.22 <0.9.0;\n\nimport \"@openzeppelin/contracts/access/Ownable.sol\";\n\ncontract DocumentVerify is Ownable {\n  constructor() Ownable(msg.sender) {  \n  }\n\n  event FileCertified(address uploader, string fileHash, string filePathCID, string fileIdentifier, uint timestamp);\n\n  struct FileCertificate {\n    address uploader;\n    string fileHash;\n    string filePathCID;\n    string fileIdentifier;\n    uint timeStamp;\n  }\n\n  //declare an object that will store the file certificates by hash\n  mapping (string => FileCertificate) fileCertificatesMap;\n \n\n  //function that allows users to certify a file\n  function certifyFile(string memory fileHash, string memory filePathCID, string memory fileIdentifier) public payable {\n    FileCertificate memory newFileCertificate = FileCertificate(msg.sender, fileHash, filePathCID, fileIdentifier, block.timestamp);\n    fileCertificatesMap[fileHash] = newFileCertificate;\n    emit FileCertified(msg.sender, fileHash, filePathCID, fileIdentifier, block.timestamp);\n  }\n\n  //function that allows users to verify if a file has been certified before\n  function verifyFile(string memory fileHash) public view returns (address, string memory, string memory, uint) {\n    return (fileCertificatesMap[fileHash].uploader, fileCertificatesMap[fileHash].filePathCID, fileCertificatesMap[fileHash].fileIdentifier, fileCertificatesMap[fileHash].timeStamp);\n  }\n\n  function verifyFileHash(string memory fileHash) public view returns (bool) {\n    return keccak256(abi.encodePacked(fileCertificatesMap[fileHash].fileHash)) == keccak256(abi.encodePacked(fileHash));\n  }\n\n}",
  "sourcePath": "/home/dev/Documents/sample/blockchain_verify/src/smart-contract/contracts/DocumentVerify.sol",
  "compiler": {
    "name": "solc",
    "version": "0.8.21+commit.d9974bed.Emscripten.clang"
  },
  "schemaVersion": "3.4.16",
  "updatedAt": "2024-04-09T12:15:49.956Z",
  "networkType": "ethereum",
  "devdoc": {
    "errors": {
      "OwnableInvalidOwner(address)": [
        {
          "details": "The owner is not a valid owner account. (eg. `address(0)`)"
        }
      ],
      "OwnableUnauthorizedAccount(address)": [
        {
          "details": "The caller account is not authorized to perform an operation."
        }
      ]
    },
    "kind": "dev",
    "methods": {
      "owner()": {
        "details": "Returns the address of the current owner."
      },
      "renounceOwnership()": {
        "details": "Leaves the contract without owner. It will not be possible to call `onlyOwner` functions. Can only be called by the current owner. NOTE: Renouncing ownership will leave the contract without an owner, thereby disabling any functionality that is only available to the owner."
      },
      "transferOwnership(address)": {
        "details": "Transfers ownership of the contract to a new account (`newOwner`). Can only be called by the current owner."
      }
    },
    "version": 1
  },
  "userdoc": {
    "kind": "user",
    "methods": {},
    "version": 1
  }
}