{
  "contractName": "DocumentVerify",
  "abi": [
    {
      "inputs": [],
      "stateMutability": "nonpayable",
      "type": "constructor"
    },
    {
      "inputs": [
        {
          "internalType": "address",
          "name": "owner",
          "type": "address"
        }
      ],
      "name": "OwnableInvalidOwner",
      "type": "error"
    },
    {
      "inputs": [
        {
          "internalType": "address",
          "name": "account",
          "type": "address"
        }
      ],
      "name": "OwnableUnauthorizedAccount",
      "type": "error"
    },
    {
      "anonymous": false,
      "inputs": [
        {
          "indexed": false,
          "internalType": "address",
          "name": "uploader",
          "type": "address"
        },
        {
          "indexed": false,
          "internalType": "string",
          "name": "fileHash",
          "type": "string"
        },
        {
          "indexed": false,
          "internalType": "string",
          "name": "filePathCID",
          "type": "string"
        },
        {
          "indexed": false,
          "internalType": "string",
          "name": "fileIdentifier",
          "type": "string"
        }
      ],
      "name": "FileCertified",
      "type": "event"
    },
    {
      "anonymous": false,
      "inputs": [
        {
          "indexed": true,
          "internalType": "address",
          "name": "previousOwner",
          "type": "address"
        },
        {
          "indexed": true,
          "internalType": "address",
          "name": "newOwner",
          "type": "address"
        }
      ],
      "name": "OwnershipTransferred",
      "type": "event"
    },
    {
      "inputs": [
        {
          "internalType": "uint256",
          "name": "",
          "type": "uint256"
        }
      ],
      "name": "files",
      "outputs": [
        {
          "internalType": "address",
          "name": "uploader",
          "type": "address"
        },
        {
          "internalType": "string",
          "name": "fileHash",
          "type": "string"
        },
        {
          "internalType": "string",
          "name": "filePathCID",
          "type": "string"
        },
        {
          "internalType": "string",
          "name": "fileIdentifier",
          "type": "string"
        }
      ],
      "stateMutability": "view",
      "type": "function",
      "constant": true
    },
    {
      "inputs": [],
      "name": "owner",
      "outputs": [
        {
          "internalType": "address",
          "name": "",
          "type": "address"
        }
      ],
      "stateMutability": "view",
      "type": "function",
      "constant": true
    },
    {
      "inputs": [],
      "name": "renounceOwnership",
      "outputs": [],
      "stateMutability": "nonpayable",
      "type": "function"
    },
    {
      "inputs": [
        {
          "internalType": "address",
          "name": "newOwner",
          "type": "address"
        }
      ],
      "name": "transferOwnership",
      "outputs": [],
      "stateMutability": "nonpayable",
      "type": "function"
    },
    {
      "inputs": [
        {
          "internalType": "string",
          "name": "fileHash",
          "type": "string"
        },
        {
          "internalType": "string",
          "name": "filePathCID",
          "type": "string"
        },
        {
          "internalType": "string",
          "name": "fileIdentifier",
          "type": "string"
        }
      ],
      "name": "certifyFile",
      "outputs": [],
      "stateMutability": "payable",
      "type": "function",
      "payable": true
    },
    {
      "inputs": [
        {
          "internalType": "string",
          "name": "hash",
          "type": "string"
        }
      ],
      "name": "verifyFile",
      "outputs": [
        {
          "internalType": "string",
          "name": "",
          "type": "string"
        }
      ],
      "stateMutability": "view",
      "type": "function",
      "constant": true
    },
    {
      "inputs": [
        {
          "internalType": "string",
          "name": "fileHash",
          "type": "string"
        }
      ],
      "name": "verifyFileHash",
      "outputs": [
        {
          "internalType": "bool",
          "name": "",
          "type": "bool"
        }
      ],
      "stateMutability": "view",
      "type": "function",
      "constant": true
    },
    {
      "inputs": [],
      "name": "withdraw",
      "outputs": [],
      "stateMutability": "nonpayable",
      "type": "function"
    }
  ],
  "bytecode": "0x608060405234801562000010575f80fd5b50335f73ffffffffffffffffffffffffffffffffffffffff168173ffffffffffffffffffffffffffffffffffffffff160362000085575f6040517f1e4fbdf70000000000000000000000000000000000000000000000000000000081526004016200007c9190620001a1565b60405180910390fd5b62000096816200009d60201b60201c565b50620001bc565b5f805f9054906101000a900473ffffffffffffffffffffffffffffffffffffffff169050815f806101000a81548173ffffffffffffffffffffffffffffffffffffffff021916908373ffffffffffffffffffffffffffffffffffffffff1602179055508173ffffffffffffffffffffffffffffffffffffffff168173ffffffffffffffffffffffffffffffffffffffff167f8be0079c531659141344cd1fd0a4f28419497f9722a3daafe3b4186f6b6457e060405160405180910390a35050565b5f73ffffffffffffffffffffffffffffffffffffffff82169050919050565b5f62000189826200015e565b9050919050565b6200019b816200017d565b82525050565b5f602082019050620001b65f83018462000190565b92915050565b61134a80620001ca5f395ff3fe60806040526004361061007a575f3560e01c8063b02710231161004d578063b027102314610110578063da7706db1461014c578063f2fde38b14610168578063f4c714b4146101905761007a565b80633ccfd60b1461007e578063715018a6146100945780638da5cb5b146100aa5780639cfb0530146100d4575b5f80fd5b348015610089575f80fd5b506100926101cf565b005b34801561009f575f80fd5b506100a8610266565b005b3480156100b5575f80fd5b506100be610279565b6040516100cb9190610a0d565b60405180910390f35b3480156100df575f80fd5b506100fa60048036038101906100f59190610b73565b6102a0565b6040516101079190610bd4565b60405180910390f35b34801561011b575f80fd5b5061013660048036038101906101319190610b73565b610314565b6040516101439190610c67565b60405180910390f35b61016660048036038101906101619190610c87565b61048e565b005b348015610173575f80fd5b5061018e60048036038101906101899190610d55565b61060f565b005b34801561019b575f80fd5b506101b660048036038101906101b19190610db3565b610693565b6040516101c69493929190610dde565b60405180910390f35b6101d761087f565b5f4711610219576040517f08c379a000000000000000000000000000000000000000000000000000000000815260040161021090610ea6565b60405180910390fd5b610221610279565b73ffffffffffffffffffffffffffffffffffffffff166108fc4790811502906040515f60405180830381858888f19350505050158015610263573d5f803e3d5ffd5b50565b61026e61087f565b6102775f610906565b565b5f805f9054906101000a900473ffffffffffffffffffffffffffffffffffffffff16905090565b5f816040516020016102b29190610efe565b604051602081830303815290604052805190602001206002836040516102d89190610efe565b90815260200160405180910390206040516020016102f69190611003565b60405160208183030381529060405280519060200120149050919050565b60605f60405180602001604052805f81525090505f5b60018054905081101561047557836040516020016103489190610efe565b604051602081830303815290604052805190602001206001828154811061037257610371611019565b5b905f5260205f2090600402016001016040516020016103919190611003565b604051602081830303815290604052805190602001200361046257600181815481106103c0576103bf611019565b5b905f5260205f20906004020160010180546103da90610f41565b80601f016020809104026020016040519081016040528092919081815260200182805461040690610f41565b80156104515780601f1061042857610100808354040283529160200191610451565b820191905f5260205f20905b81548152906001019060200180831161043457829003601f168201915b505050505091508192505050610489565b808061046d90611073565b91505061032a565b5060405180602001604052805f8152509150505b919050565b600160405180608001604052803373ffffffffffffffffffffffffffffffffffffffff16815260200185815260200184815260200183815250908060018154018082558091505060019003905f5260205f2090600402015f909190919091505f820151815f015f6101000a81548173ffffffffffffffffffffffffffffffffffffffff021916908373ffffffffffffffffffffffffffffffffffffffff16021790555060208201518160010190816105469190611245565b50604082015181600201908161055c9190611245565b5060608201518160030190816105729190611245565b505050826002846040516105869190610efe565b908152602001604051809103902090816105a09190611245565b50826003826040516105b29190610efe565b908152602001604051809103902090816105cc9190611245565b507f6243039b4e84ce985a093c38c95e4613620e81cd20fed8c17f1928d99a166143338484846040516106029493929190610dde565b60405180910390a1505050565b61061761087f565b5f73ffffffffffffffffffffffffffffffffffffffff168173ffffffffffffffffffffffffffffffffffffffff1603610687575f6040517f1e4fbdf700000000000000000000000000000000000000000000000000000000815260040161067e9190610a0d565b60405180910390fd5b61069081610906565b50565b600181815481106106a2575f80fd5b905f5260205f2090600402015f91509050805f015f9054906101000a900473ffffffffffffffffffffffffffffffffffffffff16908060010180546106e690610f41565b80601f016020809104026020016040519081016040528092919081815260200182805461071290610f41565b801561075d5780601f106107345761010080835404028352916020019161075d565b820191905f5260205f20905b81548152906001019060200180831161074057829003601f168201915b50505050509080600201805461077290610f41565b80601f016020809104026020016040519081016040528092919081815260200182805461079e90610f41565b80156107e95780601f106107c0576101008083540402835291602001916107e9565b820191905f5260205f20905b8154815290600101906020018083116107cc57829003601f168201915b5050505050908060030180546107fe90610f41565b80601f016020809104026020016040519081016040528092919081815260200182805461082a90610f41565b80156108755780601f1061084c57610100808354040283529160200191610875565b820191905f5260205f20905b81548152906001019060200180831161085857829003601f168201915b5050505050905084565b6108876109c7565b73ffffffffffffffffffffffffffffffffffffffff166108a5610279565b73ffffffffffffffffffffffffffffffffffffffff1614610904576108c86109c7565b6040517f118cdaa70000000000000000000000000000000000000000000000000000000081526004016108fb9190610a0d565b60405180910390fd5b565b5f805f9054906101000a900473ffffffffffffffffffffffffffffffffffffffff169050815f806101000a81548173ffffffffffffffffffffffffffffffffffffffff021916908373ffffffffffffffffffffffffffffffffffffffff1602179055508173ffffffffffffffffffffffffffffffffffffffff168173ffffffffffffffffffffffffffffffffffffffff167f8be0079c531659141344cd1fd0a4f28419497f9722a3daafe3b4186f6b6457e060405160405180910390a35050565b5f33905090565b5f73ffffffffffffffffffffffffffffffffffffffff82169050919050565b5f6109f7826109ce565b9050919050565b610a07816109ed565b82525050565b5f602082019050610a205f8301846109fe565b92915050565b5f604051905090565b5f80fd5b5f80fd5b5f80fd5b5f80fd5b5f601f19601f8301169050919050565b7f4e487b71000000000000000000000000000000000000000000000000000000005f52604160045260245ffd5b610a8582610a3f565b810181811067ffffffffffffffff82111715610aa457610aa3610a4f565b5b80604052505050565b5f610ab6610a26565b9050610ac28282610a7c565b919050565b5f67ffffffffffffffff821115610ae157610ae0610a4f565b5b610aea82610a3f565b9050602081019050919050565b828183375f83830152505050565b5f610b17610b1284610ac7565b610aad565b905082815260208101848484011115610b3357610b32610a3b565b5b610b3e848285610af7565b509392505050565b5f82601f830112610b5a57610b59610a37565b5b8135610b6a848260208601610b05565b91505092915050565b5f60208284031215610b8857610b87610a2f565b5b5f82013567ffffffffffffffff811115610ba557610ba4610a33565b5b610bb184828501610b46565b91505092915050565b5f8115159050919050565b610bce81610bba565b82525050565b5f602082019050610be75f830184610bc5565b92915050565b5f81519050919050565b5f82825260208201905092915050565b5f5b83811015610c24578082015181840152602081019050610c09565b5f8484015250505050565b5f610c3982610bed565b610c438185610bf7565b9350610c53818560208601610c07565b610c5c81610a3f565b840191505092915050565b5f6020820190508181035f830152610c7f8184610c2f565b905092915050565b5f805f60608486031215610c9e57610c9d610a2f565b5b5f84013567ffffffffffffffff811115610cbb57610cba610a33565b5b610cc786828701610b46565b935050602084013567ffffffffffffffff811115610ce857610ce7610a33565b5b610cf486828701610b46565b925050604084013567ffffffffffffffff811115610d1557610d14610a33565b5b610d2186828701610b46565b9150509250925092565b610d34816109ed565b8114610d3e575f80fd5b50565b5f81359050610d4f81610d2b565b92915050565b5f60208284031215610d6a57610d69610a2f565b5b5f610d7784828501610d41565b91505092915050565b5f819050919050565b610d9281610d80565b8114610d9c575f80fd5b50565b5f81359050610dad81610d89565b92915050565b5f60208284031215610dc857610dc7610a2f565b5b5f610dd584828501610d9f565b91505092915050565b5f608082019050610df15f8301876109fe565b8181036020830152610e038186610c2f565b90508181036040830152610e178185610c2f565b90508181036060830152610e2b8184610c2f565b905095945050505050565b7f496e73756666696369656e7420636f6e74726163742062616c616e636520666f5f8201527f72207769746864726177616c0000000000000000000000000000000000000000602082015250565b5f610e90602c83610bf7565b9150610e9b82610e36565b604082019050919050565b5f6020820190508181035f830152610ebd81610e84565b9050919050565b5f81905092915050565b5f610ed882610bed565b610ee28185610ec4565b9350610ef2818560208601610c07565b80840191505092915050565b5f610f098284610ece565b915081905092915050565b7f4e487b71000000000000000000000000000000000000000000000000000000005f52602260045260245ffd5b5f6002820490506001821680610f5857607f821691505b602082108103610f6b57610f6a610f14565b5b50919050565b5f819050815f5260205f209050919050565b5f8154610f8f81610f41565b610f998186610ec4565b9450600182165f8114610fb35760018114610fc857610ffa565b60ff1983168652811515820286019350610ffa565b610fd185610f71565b5f5b83811015610ff257815481890152600182019150602081019050610fd3565b838801955050505b50505092915050565b5f61100e8284610f83565b915081905092915050565b7f4e487b71000000000000000000000000000000000000000000000000000000005f52603260045260245ffd5b7f4e487b71000000000000000000000000000000000000000000000000000000005f52601160045260245ffd5b5f61107d82610d80565b91507fffffffffffffffffffffffffffffffffffffffffffffffffffffffffffffffff82036110af576110ae611046565b5b600182019050919050565b5f6020601f8301049050919050565b5f82821b905092915050565b5f600883026111047fffffffffffffffffffffffffffffffffffffffffffffffffffffffffffffffff826110c9565b61110e86836110c9565b95508019841693508086168417925050509392505050565b5f819050919050565b5f61114961114461113f84610d80565b611126565b610d80565b9050919050565b5f819050919050565b6111628361112f565b61117661116e82611150565b8484546110d5565b825550505050565b5f90565b61118a61117e565b611195818484611159565b505050565b5b818110156111b8576111ad5f82611182565b60018101905061119b565b5050565b601f8211156111fd576111ce81610f71565b6111d7846110ba565b810160208510156111e6578190505b6111fa6111f2856110ba565b83018261119a565b50505b505050565b5f82821c905092915050565b5f61121d5f1984600802611202565b1980831691505092915050565b5f611235838361120e565b9150826002028217905092915050565b61124e82610bed565b67ffffffffffffffff81111561126757611266610a4f565b5b6112718254610f41565b61127c8282856111bc565b5f60209050601f8311600181146112ad575f841561129b578287015190505b6112a5858261122a565b86555061130c565b601f1984166112bb86610f71565b5f5b828110156112e2578489015182556001820191506020850194506020810190506112bd565b868310156112ff57848901516112fb601f89168261120e565b8355505b6001600288020188555050505b50505050505056fea2646970667358221220d27ea6d6360f5657a3aba950123ab3d8efdf48e784096bde4a40e8477679ed4864736f6c63430008150033",
  "immutableReferences": {},
  "source": "// SPDX-License-Identifier: GPL-3.0\n\npragma solidity >=0.4.22 <0.9.0;\n\nimport \"@openzeppelin/contracts/access/Ownable.sol\";\n\ncontract DocumentVerify is Ownable {\n  constructor() Ownable(msg.sender) {  \n  }\n\n  event FileCertified(address uploader, string fileHash, string filePathCID, string fileIdentifier);\n\n  struct FileCertificate {\n    address uploader;\n    string fileHash;\n    string filePathCID;\n    string fileIdentifier;\n  }\n\n  FileCertificate[] public files;\n  //declare an object that will store the file certificates by hash\n  mapping (string => string) fileCertificatesMap;\n  mapping (string => string) fileCertificatesId;\n \n\n  //function that allows users to certify a file\n  function certifyFile(string memory fileHash, string memory filePathCID, string memory fileIdentifier) public payable {\n    files.push(FileCertificate(msg.sender, fileHash, filePathCID, fileIdentifier));\n    fileCertificatesMap[fileHash] = fileHash;\n    fileCertificatesId[fileIdentifier] = fileHash;\n    emit FileCertified(msg.sender, fileHash, filePathCID, fileIdentifier);\n  }\n\n  //function that allows users to verify if a file has been certified before\n  function verifyFile(string memory hash) public view returns (string memory) {\n    string memory result = '';\n    for (uint i = 0; i < files.length; i++) {\n      if (keccak256(abi.encodePacked(files[i].fileHash)) == keccak256(abi.encodePacked(hash))) {\n        result = files[i].fileHash;\n        return result;\n      }\n    } \n    return '';  \n  }\n\n  function verifyFileHash(string memory fileHash) public view returns (bool) {\n    return keccak256(abi.encodePacked(fileCertificatesMap[fileHash])) == keccak256(abi.encodePacked(fileHash));\n  }\n\n   function withdraw() public onlyOwner {\n    require(address(this).balance > 0, \"Insufficient contract balance for withdrawal\");\n    payable(owner()).transfer(address(this).balance);\n  }\n\n}",
  "sourcePath": "/home/dev/Documents/sample/blockchain_verify/src/smart-contract/contracts/DocumentVerify.sol",
  "compiler": {
    "name": "solc",
    "version": "0.8.21+commit.d9974bed.Emscripten.clang"
  },
  "schemaVersion": "3.4.16",
  "updatedAt": "2024-04-12T09:19:51.230Z",
  "networkType": "ethereum",
  "devdoc": {
    "errors": {
      "OwnableInvalidOwner(address)": [
        {
          "details": "The owner is not a valid owner account. (eg. `address(0)`)"
        }
      ],
      "OwnableUnauthorizedAccount(address)": [
        {
          "details": "The caller account is not authorized to perform an operation."
        }
      ]
    },
    "kind": "dev",
    "methods": {
      "owner()": {
        "details": "Returns the address of the current owner."
      },
      "renounceOwnership()": {
        "details": "Leaves the contract without owner. It will not be possible to call `onlyOwner` functions. Can only be called by the current owner. NOTE: Renouncing ownership will leave the contract without an owner, thereby disabling any functionality that is only available to the owner."
      },
      "transferOwnership(address)": {
        "details": "Transfers ownership of the contract to a new account (`newOwner`). Can only be called by the current owner."
      }
    },
    "version": 1
  },
  "userdoc": {
    "kind": "user",
    "methods": {},
    "version": 1
  }
}